{
  "_format": "hh-sol-artifact-1",
  "contractName": "CertificateContract",
  "sourceName": "contracts/Certificate.sol",
  "abi": [
    {
      "anonymous": false,
      "inputs": [
        {
          "indexed": false,
          "internalType": "string",
          "name": "userId",
          "type": "string"
        },
        {
          "indexed": false,
          "internalType": "string",
          "name": "courseId",
          "type": "string"
        },
        {
          "indexed": false,
          "internalType": "string",
          "name": "completedPoint",
          "type": "string"
        },
        {
          "indexed": false,
          "internalType": "uint256",
          "name": "timestamp",
          "type": "uint256"
        },
        {
          "indexed": false,
          "internalType": "bool",
          "name": "isCompleted",
          "type": "bool"
        }
      ],
      "name": "CertificateAdded",
      "type": "event"
    },
    {
      "inputs": [
        {
          "internalType": "string",
          "name": "_userId",
          "type": "string"
        },
        {
          "internalType": "string",
          "name": "_courseId",
          "type": "string"
        },
        {
          "internalType": "string",
          "name": "_completedPoint",
          "type": "string"
        }
      ],
      "name": "addCertificate",
      "outputs": [],
      "stateMutability": "nonpayable",
      "type": "function"
    },
    {
      "inputs": [
        {
          "internalType": "string",
          "name": "_userId",
          "type": "string"
        },
        {
          "internalType": "string",
          "name": "_courseId",
          "type": "string"
        }
      ],
      "name": "createCertificate",
      "outputs": [],
      "stateMutability": "payable",
      "type": "function"
    },
    {
      "inputs": [
        {
          "internalType": "string",
          "name": "_userId",
          "type": "string"
        },
        {
          "internalType": "string",
          "name": "_courseId",
          "type": "string"
        }
      ],
      "name": "getCertificate",
      "outputs": [
        {
          "components": [
            {
              "internalType": "string",
              "name": "userId",
              "type": "string"
            },
            {
              "internalType": "string",
              "name": "courseId",
              "type": "string"
            },
            {
              "internalType": "string",
              "name": "completedPoint",
              "type": "string"
            },
            {
              "internalType": "uint256",
              "name": "timestamp",
              "type": "uint256"
            },
            {
              "internalType": "bool",
              "name": "isCompleted",
              "type": "bool"
            }
          ],
          "internalType": "struct CertificateContract.Certificate",
          "name": "item",
          "type": "tuple"
        }
      ],
      "stateMutability": "view",
      "type": "function"
    }
  ],
  "bytecode": "0x60806040526608e1bc9bf0400060005534801561001b57600080fd5b50610f5d8061002b6000396000f3fe6080604052600436106100345760003560e01c80630dd2e87614610039578063ac9e576014610076578063f02c5a201461009f575b600080fd5b34801561004557600080fd5b50610060600480360381019061005b919061072f565b6100bb565b60405161006d91906108de565b60405180910390f35b34801561008257600080fd5b5061009d60048036038101906100989190610900565b6102eb565b005b6100b960048036038101906100b4919061072f565b61040f565b005b6100c36105a4565b6001836040516100d391906109e3565b9081526020016040518091039020826040516100ef91906109e3565b90815260200160405180910390206040518060a001604052908160008201805461011890610a29565b80601f016020809104026020016040519081016040528092919081815260200182805461014490610a29565b80156101915780601f1061016657610100808354040283529160200191610191565b820191906000526020600020905b81548152906001019060200180831161017457829003601f168201915b505050505081526020016001820180546101aa90610a29565b80601f01602080910402602001604051908101604052809291908181526020018280546101d690610a29565b80156102235780601f106101f857610100808354040283529160200191610223565b820191906000526020600020905b81548152906001019060200180831161020657829003601f168201915b5050505050815260200160028201805461023c90610a29565b80601f016020809104026020016040519081016040528092919081815260200182805461026890610a29565b80156102b55780601f1061028a576101008083540402835291602001916102b5565b820191906000526020600020905b81548152906001019060200180831161029857829003601f168201915b50505050508152602001600382015481526020016004820160009054906101000a900460ff161515151581525050905092915050565b600042905060006040518060a001604052808681526020018581526020018481526020018381526020016001151581525090508060018660405161032f91906109e3565b90815260200160405180910390208560405161034b91906109e3565b9081526020016040518091039020600082015181600001908161036e9190610c06565b5060208201518160010190816103849190610c06565b50604082015181600201908161039a9190610c06565b506060820151816003015560808201518160040160006101000a81548160ff0219169083151502179055509050507fc96ad9ace464cf860cf75b9a0285e1fa9a7d9dc2178efc814d79f393d59bd4c1858585856001604051610400959493929190610d40565b60405180910390a15050505050565b6000543414610453576040517f08c379a000000000000000000000000000000000000000000000000000000000815260040161044a90610e1a565b60405180910390fd5b60006040518060a001604052808481526020018381526020016040518060400160405280600181526020017f3000000000000000000000000000000000000000000000000000000000000000815250815260200160008152602001600015158152509050806001846040516104c891906109e3565b9081526020016040518091039020836040516104e491906109e3565b908152602001604051809103902060008201518160000190816105079190610c06565b50602082015181600101908161051d9190610c06565b5060408201518160020190816105339190610c06565b506060820151816003015560808201518160040160006101000a81548160ff0219169083151502179055509050507fc96ad9ace464cf860cf75b9a0285e1fa9a7d9dc2178efc814d79f393d59bd4c183836000806040516105979493929190610ec1565b60405180910390a1505050565b6040518060a00160405280606081526020016060815260200160608152602001600081526020016000151581525090565b6000604051905090565b600080fd5b600080fd5b600080fd5b600080fd5b6000601f19601f8301169050919050565b7f4e487b7100000000000000000000000000000000000000000000000000000000600052604160045260246000fd5b61063c826105f3565b810181811067ffffffffffffffff8211171561065b5761065a610604565b5b80604052505050565b600061066e6105d5565b905061067a8282610633565b919050565b600067ffffffffffffffff82111561069a57610699610604565b5b6106a3826105f3565b9050602081019050919050565b82818337600083830152505050565b60006106d26106cd8461067f565b610664565b9050828152602081018484840111156106ee576106ed6105ee565b5b6106f98482856106b0565b509392505050565b600082601f830112610716576107156105e9565b5b81356107268482602086016106bf565b91505092915050565b60008060408385031215610746576107456105df565b5b600083013567ffffffffffffffff811115610764576107636105e4565b5b61077085828601610701565b925050602083013567ffffffffffffffff811115610791576107906105e4565b5b61079d85828601610701565b9150509250929050565b600081519050919050565b600082825260208201905092915050565b60005b838110156107e15780820151818401526020810190506107c6565b60008484015250505050565b60006107f8826107a7565b61080281856107b2565b93506108128185602086016107c3565b61081b816105f3565b840191505092915050565b6000819050919050565b61083981610826565b82525050565b60008115159050919050565b6108548161083f565b82525050565b600060a083016000830151848203600086015261087782826107ed565b9150506020830151848203602086015261089182826107ed565b915050604083015184820360408601526108ab82826107ed565b91505060608301516108c06060860182610830565b5060808301516108d3608086018261084b565b508091505092915050565b600060208201905081810360008301526108f8818461085a565b905092915050565b600080600060608486031215610919576109186105df565b5b600084013567ffffffffffffffff811115610937576109366105e4565b5b61094386828701610701565b935050602084013567ffffffffffffffff811115610964576109636105e4565b5b61097086828701610701565b925050604084013567ffffffffffffffff811115610991576109906105e4565b5b61099d86828701610701565b9150509250925092565b600081905092915050565b60006109bd826107a7565b6109c781856109a7565b93506109d78185602086016107c3565b80840191505092915050565b60006109ef82846109b2565b915081905092915050565b7f4e487b7100000000000000000000000000000000000000000000000000000000600052602260045260246000fd5b60006002820490506001821680610a4157607f821691505b602082108103610a5457610a536109fa565b5b50919050565b60008190508160005260206000209050919050565b60006020601f8301049050919050565b600082821b905092915050565b600060088302610abc7fffffffffffffffffffffffffffffffffffffffffffffffffffffffffffffffff82610a7f565b610ac68683610a7f565b95508019841693508086168417925050509392505050565b6000819050919050565b6000610b03610afe610af984610826565b610ade565b610826565b9050919050565b6000819050919050565b610b1d83610ae8565b610b31610b2982610b0a565b848454610a8c565b825550505050565b600090565b610b46610b39565b610b51818484610b14565b505050565b5b81811015610b7557610b6a600082610b3e565b600181019050610b57565b5050565b601f821115610bba57610b8b81610a5a565b610b9484610a6f565b81016020851015610ba3578190505b610bb7610baf85610a6f565b830182610b56565b50505b505050565b600082821c905092915050565b6000610bdd60001984600802610bbf565b1980831691505092915050565b6000610bf68383610bcc565b9150826002028217905092915050565b610c0f826107a7565b67ffffffffffffffff811115610c2857610c27610604565b5b610c328254610a29565b610c3d828285610b79565b600060209050601f831160018114610c705760008415610c5e578287015190505b610c688582610bea565b865550610cd0565b601f198416610c7e86610a5a565b60005b82811015610ca657848901518255600182019150602085019450602081019050610c81565b86831015610cc35784890151610cbf601f891682610bcc565b8355505b6001600288020188555050505b505050505050565b600082825260208201905092915050565b6000610cf4826107a7565b610cfe8185610cd8565b9350610d0e8185602086016107c3565b610d17816105f3565b840191505092915050565b610d2b81610826565b82525050565b610d3a8161083f565b82525050565b600060a0820190508181036000830152610d5a8188610ce9565b90508181036020830152610d6e8187610ce9565b90508181036040830152610d828186610ce9565b9050610d916060830185610d22565b610d9e6080830184610d31565b9695505050505050565b7f5072696365206d75737420626520657175616c20746f206c697374696e67207060008201527f7269636500000000000000000000000000000000000000000000000000000000602082015250565b6000610e04602483610cd8565b9150610e0f82610da8565b604082019050919050565b60006020820190508181036000830152610e3381610df7565b9050919050565b7f3000000000000000000000000000000000000000000000000000000000000000600082015250565b6000610e70600183610cd8565b9150610e7b82610e3a565b602082019050919050565b6000819050919050565b6000610eab610ea6610ea184610e86565b610ade565b610826565b9050919050565b610ebb81610e90565b82525050565b600060a0820190508181036000830152610edb8187610ce9565b90508181036020830152610eef8186610ce9565b90508181036040830152610f0281610e63565b9050610f116060830185610eb2565b610f1e6080830184610d31565b9594505050505056fea2646970667358221220aa06bb16f28c78c8995d181b59c6b0c0f4191b7a7921c5614a6dd2935e0b1e0364736f6c63430008130033",
  "linkReferences": {},
  "deployedLinkReferences": {}
}