{
  "_format": "hh-sol-artifact-1",
  "contractName": "CertificateContract",
  "sourceName": "contracts/Certificate.sol",
  "abi": [
    {
      "anonymous": false,
      "inputs": [
        {
          "indexed": false,
          "internalType": "string",
          "name": "userId",
          "type": "string"
        },
        {
          "indexed": false,
          "internalType": "string",
          "name": "courseId",
          "type": "string"
        },
        {
          "indexed": false,
          "internalType": "string",
          "name": "completedPoint",
          "type": "string"
        },
        {
          "indexed": false,
          "internalType": "uint256",
          "name": "timestamp",
          "type": "uint256"
        }
      ],
      "name": "CertificateAdded",
      "type": "event"
    },
    {
      "inputs": [
        {
          "internalType": "string",
          "name": "_userId",
          "type": "string"
        },
        {
          "internalType": "string",
          "name": "_courseId",
          "type": "string"
        },
        {
          "internalType": "string",
          "name": "_completedPoint",
          "type": "string"
        }
      ],
      "name": "addCertificate",
      "outputs": [],
      "stateMutability": "nonpayable",
      "type": "function"
    },
    {
      "inputs": [
        {
          "internalType": "string",
          "name": "_userId",
          "type": "string"
        },
        {
          "internalType": "string",
          "name": "_courseId",
          "type": "string"
        }
      ],
      "name": "getCertificate",
      "outputs": [
        {
          "components": [
            {
              "internalType": "string",
              "name": "userId",
              "type": "string"
            },
            {
              "internalType": "string",
              "name": "courseId",
              "type": "string"
            },
            {
              "internalType": "string",
              "name": "completedPoint",
              "type": "string"
            },
            {
              "internalType": "uint256",
              "name": "timestamp",
              "type": "uint256"
            }
          ],
          "internalType": "struct CertificateContract.Certificate",
          "name": "item",
          "type": "tuple"
        }
      ],
      "stateMutability": "view",
      "type": "function"
    }
  ],
  "bytecode": "0x60806040526608e1bc9bf0400060005534801561001b57600080fd5b50610c728061002b6000396000f3fe608060405234801561001057600080fd5b50600436106100365760003560e01c80630dd2e8761461003b578063ac9e57601461006b575b600080fd5b610055600480360381019061005091906105a2565b610087565b6040516100629190610723565b60405180910390f35b61008560048036038101906100809190610745565b61029c565b005b61008f610420565b60018360405161009f9190610828565b9081526020016040518091039020826040516100bb9190610828565b90815260200160405180910390206040518060800160405290816000820180546100e49061086e565b80601f01602080910402602001604051908101604052809291908181526020018280546101109061086e565b801561015d5780601f106101325761010080835404028352916020019161015d565b820191906000526020600020905b81548152906001019060200180831161014057829003601f168201915b505050505081526020016001820180546101769061086e565b80601f01602080910402602001604051908101604052809291908181526020018280546101a29061086e565b80156101ef5780601f106101c4576101008083540402835291602001916101ef565b820191906000526020600020905b8154815290600101906020018083116101d257829003601f168201915b505050505081526020016002820180546102089061086e565b80601f01602080910402602001604051908101604052809291908181526020018280546102349061086e565b80156102815780601f1061025657610100808354040283529160200191610281565b820191906000526020600020905b81548152906001019060200180831161026457829003601f168201915b50505050508152602001600382015481525050905092915050565b60006001846040516102ae9190610828565b9081526020016040518091039020836040516102ca9190610828565b908152602001604051809103902060000180546102e69061086e565b905014610328576040517f08c379a000000000000000000000000000000000000000000000000000000000815260040161031f906108fc565b60405180910390fd5b600042905060006040518060800160405280868152602001858152602001848152602001838152509050806001866040516103639190610828565b90815260200160405180910390208560405161037f9190610828565b908152602001604051809103902060008201518160000190816103a29190610ac8565b5060208201518160010190816103b89190610ac8565b5060408201518160020190816103ce9190610ac8565b50606082015181600301559050507fcee9eb3edbf1090be14b3b516aaec0549dd9f36a6d3cfa31fb24c39b8546e1f3858585856040516104119493929190610be2565b60405180910390a15050505050565b6040518060800160405280606081526020016060815260200160608152602001600081525090565b6000604051905090565b600080fd5b600080fd5b600080fd5b600080fd5b6000601f19601f8301169050919050565b7f4e487b7100000000000000000000000000000000000000000000000000000000600052604160045260246000fd5b6104af82610466565b810181811067ffffffffffffffff821117156104ce576104cd610477565b5b80604052505050565b60006104e1610448565b90506104ed82826104a6565b919050565b600067ffffffffffffffff82111561050d5761050c610477565b5b61051682610466565b9050602081019050919050565b82818337600083830152505050565b6000610545610540846104f2565b6104d7565b90508281526020810184848401111561056157610560610461565b5b61056c848285610523565b509392505050565b600082601f8301126105895761058861045c565b5b8135610599848260208601610532565b91505092915050565b600080604083850312156105b9576105b8610452565b5b600083013567ffffffffffffffff8111156105d7576105d6610457565b5b6105e385828601610574565b925050602083013567ffffffffffffffff81111561060457610603610457565b5b61061085828601610574565b9150509250929050565b600081519050919050565b600082825260208201905092915050565b60005b83811015610654578082015181840152602081019050610639565b60008484015250505050565b600061066b8261061a565b6106758185610625565b9350610685818560208601610636565b61068e81610466565b840191505092915050565b6000819050919050565b6106ac81610699565b82525050565b600060808301600083015184820360008601526106cf8282610660565b915050602083015184820360208601526106e98282610660565b915050604083015184820360408601526107038282610660565b915050606083015161071860608601826106a3565b508091505092915050565b6000602082019050818103600083015261073d81846106b2565b905092915050565b60008060006060848603121561075e5761075d610452565b5b600084013567ffffffffffffffff81111561077c5761077b610457565b5b61078886828701610574565b935050602084013567ffffffffffffffff8111156107a9576107a8610457565b5b6107b586828701610574565b925050604084013567ffffffffffffffff8111156107d6576107d5610457565b5b6107e286828701610574565b9150509250925092565b600081905092915050565b60006108028261061a565b61080c81856107ec565b935061081c818560208601610636565b80840191505092915050565b600061083482846107f7565b915081905092915050565b7f4e487b7100000000000000000000000000000000000000000000000000000000600052602260045260246000fd5b6000600282049050600182168061088657607f821691505b6020821081036108995761089861083f565b5b50919050565b600082825260208201905092915050565b7f436572746966696361746520616c726561647920657869737473000000000000600082015250565b60006108e6601a8361089f565b91506108f1826108b0565b602082019050919050565b60006020820190508181036000830152610915816108d9565b9050919050565b60008190508160005260206000209050919050565b60006020601f8301049050919050565b600082821b905092915050565b60006008830261097e7fffffffffffffffffffffffffffffffffffffffffffffffffffffffffffffffff82610941565b6109888683610941565b95508019841693508086168417925050509392505050565b6000819050919050565b60006109c56109c06109bb84610699565b6109a0565b610699565b9050919050565b6000819050919050565b6109df836109aa565b6109f36109eb826109cc565b84845461094e565b825550505050565b600090565b610a086109fb565b610a138184846109d6565b505050565b5b81811015610a3757610a2c600082610a00565b600181019050610a19565b5050565b601f821115610a7c57610a4d8161091c565b610a5684610931565b81016020851015610a65578190505b610a79610a7185610931565b830182610a18565b50505b505050565b600082821c905092915050565b6000610a9f60001984600802610a81565b1980831691505092915050565b6000610ab88383610a8e565b9150826002028217905092915050565b610ad18261061a565b67ffffffffffffffff811115610aea57610ae9610477565b5b610af4825461086e565b610aff828285610a3b565b600060209050601f831160018114610b325760008415610b20578287015190505b610b2a8582610aac565b865550610b92565b601f198416610b408661091c565b60005b82811015610b6857848901518255600182019150602085019450602081019050610b43565b86831015610b855784890151610b81601f891682610a8e565b8355505b6001600288020188555050505b505050505050565b6000610ba58261061a565b610baf818561089f565b9350610bbf818560208601610636565b610bc881610466565b840191505092915050565b610bdc81610699565b82525050565b60006080820190508181036000830152610bfc8187610b9a565b90508181036020830152610c108186610b9a565b90508181036040830152610c248185610b9a565b9050610c336060830184610bd3565b9594505050505056fea26469706673582212207f822d11d6eec2158368e6d11e8c804ff29230756fe78701b163bbdf66c0de0b64736f6c63430008130033",
  "linkReferences": {},
  "deployedLinkReferences": {}
}